{
  "contractName": "waterBill",
  "abi": [
    {
      "constant": true,
      "inputs": [],
      "name": "rateperliter",
      "outputs": [
        {
          "name": "",
          "type": "uint256"
        }
      ],
      "payable": false,
      "stateMutability": "view",
      "type": "function"
    },
    {
      "inputs": [],
      "payable": false,
      "stateMutability": "nonpayable",
      "type": "constructor"
    },
    {
      "anonymous": false,
      "inputs": [
        {
          "indexed": false,
          "name": "_name",
          "type": "string"
        },
        {
          "indexed": false,
          "name": "_address",
          "type": "address"
        },
        {
          "indexed": false,
          "name": "_waterconsumed",
          "type": "uint256"
        }
      ],
      "name": "NewUser",
      "type": "event"
    },
    {
      "anonymous": false,
      "inputs": [
        {
          "indexed": false,
          "name": "_address",
          "type": "address"
        },
        {
          "indexed": false,
          "name": "billamount",
          "type": "uint256"
        }
      ],
      "name": "BillGenerated",
      "type": "event"
    },
    {
      "anonymous": false,
      "inputs": [
        {
          "indexed": false,
          "name": "_address",
          "type": "address"
        },
        {
          "indexed": false,
          "name": "_amount",
          "type": "uint256"
        },
        {
          "indexed": false,
          "name": "_paid",
          "type": "bool"
        }
      ],
      "name": "Billpaid",
      "type": "event"
    },
    {
      "constant": false,
      "inputs": [
        {
          "name": "_name",
          "type": "string"
        },
        {
          "name": "_address",
          "type": "address"
        },
        {
          "name": "_waterconsumed",
          "type": "uint256"
        },
        {
          "name": "_Physicaladdress",
          "type": "string"
        }
      ],
      "name": "setUser",
      "outputs": [],
      "payable": false,
      "stateMutability": "nonpayable",
      "type": "function"
    },
    {
      "constant": false,
      "inputs": [
        {
          "name": "_address",
          "type": "address"
        }
      ],
      "name": "setBill",
      "outputs": [
        {
          "name": "",
          "type": "uint256"
        }
      ],
      "payable": false,
      "stateMutability": "nonpayable",
      "type": "function"
    },
    {
      "constant": true,
      "inputs": [
        {
          "name": "_address",
          "type": "address"
        }
      ],
      "name": "getBill",
      "outputs": [
        {
          "name": "",
          "type": "uint256"
        }
      ],
      "payable": false,
      "stateMutability": "view",
      "type": "function"
    },
    {
      "constant": false,
      "inputs": [
        {
          "name": "_rate",
          "type": "uint256"
        }
      ],
      "name": "setRate",
      "outputs": [],
      "payable": false,
      "stateMutability": "nonpayable",
      "type": "function"
    },
    {
      "constant": true,
      "inputs": [
        {
          "name": "_address",
          "type": "address"
        }
      ],
      "name": "getDetails",
      "outputs": [
        {
          "name": "",
          "type": "string"
        },
        {
          "name": "",
          "type": "uint256"
        },
        {
          "name": "",
          "type": "string"
        },
        {
          "name": "",
          "type": "uint256"
        },
        {
          "name": "",
          "type": "bool"
        }
      ],
      "payable": false,
      "stateMutability": "view",
      "type": "function"
    },
    {
      "constant": false,
      "inputs": [
        {
          "name": "_address",
          "type": "address"
        }
      ],
      "name": "payBill",
      "outputs": [
        {
          "name": "",
          "type": "bool"
        }
      ],
      "payable": true,
      "stateMutability": "payable",
      "type": "function"
    }
  ],
  "bytecode": "0x608060405234801561001057600080fd5b50336000806101000a81548173ffffffffffffffffffffffffffffffffffffffff021916908373ffffffffffffffffffffffffffffffffffffffff160217905550611467806100606000396000f3fe608060405260043610610083576000357c0100000000000000000000000000000000000000000000000000000000900463ffffffff1680631f4ba99e1461008857806325b6201d146100ed57806330289c611461027657806334fcf437146103c557806371fa0a0c146104005780638a7f61af14610465578063ff4472c614610490575b600080fd5b34801561009457600080fd5b506100d7600480360360208110156100ab57600080fd5b81019080803573ffffffffffffffffffffffffffffffffffffffff1690602001909291905050506104ec565b6040518082815260200191505060405180910390f35b3480156100f957600080fd5b506102746004803603608081101561011057600080fd5b810190808035906020019064010000000081111561012d57600080fd5b82018360208201111561013f57600080fd5b8035906020019184600183028401116401000000008311171561016157600080fd5b91908080601f016020809104026020016040519081016040528093929190818152602001838380828437600081840152601f19601f820116905080830192505050505050509192919290803573ffffffffffffffffffffffffffffffffffffffff16906020019092919080359060200190929190803590602001906401000000008111156101ee57600080fd5b82018360208201111561020057600080fd5b8035906020019184600183028401116401000000008311171561022257600080fd5b91908080601f016020809104026020016040519081016040528093929190818152602001838380828437600081840152601f19601f820116905080830192505050505050509192919290505050610858565b005b34801561028257600080fd5b506102c56004803603602081101561029957600080fd5b81019080803573ffffffffffffffffffffffffffffffffffffffff169060200190929190505050610b08565b60405180806020018681526020018060200185815260200184151515158152602001838103835288818151815260200191508051906020019080838360005b8381101561031f578082015181840152602081019050610304565b50505050905090810190601f16801561034c5780820380516001836020036101000a031916815260200191505b50838103825286818151815260200191508051906020019080838360005b8381101561038557808201518184015260208101905061036a565b50505050905090810190601f1680156103b25780820380516001836020036101000a031916815260200191505b5097505050505050505060405180910390f35b3480156103d157600080fd5b506103fe600480360360208110156103e857600080fd5b8101908080359060200190929190505050610ea0565b005b34801561040c57600080fd5b5061044f6004803603602081101561042357600080fd5b81019080803573ffffffffffffffffffffffffffffffffffffffff169060200190929190505050610f94565b6040518082815260200191505060405180910390f35b34801561047157600080fd5b5061047a610fe0565b6040518082815260200191505060405180910390f35b6104d2600480360360208110156104a657600080fd5b81019080803573ffffffffffffffffffffffffffffffffffffffff169060200190929190505050610fe6565b604051808215151515815260200191505060405180910390f35b60008060009054906101000a900473ffffffffffffffffffffffffffffffffffffffff1673ffffffffffffffffffffffffffffffffffffffff163373ffffffffffffffffffffffffffffffffffffffff161415156105d8576040517f08c379a00000000000000000000000000000000000000000000000000000000081526004018080602001828103825260268152602001807f4f6e6c792041646d696e206861732061636365737320746f207468697320667581526020017f6e6374696f6e000000000000000000000000000000000000000000000000000081525060400191505060405180910390fd5b600060015414151515610679576040517f08c379a00000000000000000000000000000000000000000000000000000000081526004018080602001828103825260218152602001807f506c656173652066696c6c207261746520706572206c6974657220666972737481526020017f210000000000000000000000000000000000000000000000000000000000000081525060400191505060405180910390fd5b600154600260008473ffffffffffffffffffffffffffffffffffffffff1673ffffffffffffffffffffffffffffffffffffffff1681526020019081526020016000206002015402600260008473ffffffffffffffffffffffffffffffffffffffff1673ffffffffffffffffffffffffffffffffffffffff168152602001908152602001600020600301819055506000600260008473ffffffffffffffffffffffffffffffffffffffff1673ffffffffffffffffffffffffffffffffffffffff16815260200190815260200160002060040160006101000a81548160ff0219169083151502179055507f72813640d033572bca1120c8060cba752e6b9d99943e1b91632a1eeb1f830eb882600260008573ffffffffffffffffffffffffffffffffffffffff1673ffffffffffffffffffffffffffffffffffffffff16815260200190815260200160002060030154604051808373ffffffffffffffffffffffffffffffffffffffff1673ffffffffffffffffffffffffffffffffffffffff1681526020018281526020019250505060405180910390a1600260008373ffffffffffffffffffffffffffffffffffffffff1673ffffffffffffffffffffffffffffffffffffffff168152602001908152602001600020600301549050919050565b6000809054906101000a900473ffffffffffffffffffffffffffffffffffffffff1673ffffffffffffffffffffffffffffffffffffffff163373ffffffffffffffffffffffffffffffffffffffff16141515610942576040517f08c379a00000000000000000000000000000000000000000000000000000000081526004018080602001828103825260268152602001807f4f6e6c792041646d696e206861732061636365737320746f207468697320667581526020017f6e6374696f6e000000000000000000000000000000000000000000000000000081525060400191505060405180910390fd5b6000600260008573ffffffffffffffffffffffffffffffffffffffff1673ffffffffffffffffffffffffffffffffffffffff16815260200190815260200160002090508481600001908051906020019061099d929190611396565b50828160020181905550818160010190805190602001906109bf929190611396565b50600160038590806001815401808255809150509060018203906000526020600020016000909192909190916101000a81548173ffffffffffffffffffffffffffffffffffffffff021916908373ffffffffffffffffffffffffffffffffffffffff16021790555050507ff4d5c0191b52b38292d49ae4c7633f6a49102056eddc7ac27149f4324a7b583985858560405180806020018473ffffffffffffffffffffffffffffffffffffffff1673ffffffffffffffffffffffffffffffffffffffff168152602001838152602001828103825285818151815260200191508051906020019080838360005b83811015610ac5578082015181840152602081019050610aaa565b50505050905090810190601f168015610af25780820380516001836020036101000a031916815260200191505b5094505050505060405180910390a15050505050565b6060600060606000806000809054906101000a900473ffffffffffffffffffffffffffffffffffffffff1673ffffffffffffffffffffffffffffffffffffffff163373ffffffffffffffffffffffffffffffffffffffff16141515610bfb576040517f08c379a00000000000000000000000000000000000000000000000000000000081526004018080602001828103825260268152602001807f4f6e6c792041646d696e206861732061636365737320746f207468697320667581526020017f6e6374696f6e000000000000000000000000000000000000000000000000000081525060400191505060405180910390fd5b600260008773ffffffffffffffffffffffffffffffffffffffff1673ffffffffffffffffffffffffffffffffffffffff168152602001908152602001600020600001600260008873ffffffffffffffffffffffffffffffffffffffff1673ffffffffffffffffffffffffffffffffffffffff16815260200190815260200160002060020154600260008973ffffffffffffffffffffffffffffffffffffffff1673ffffffffffffffffffffffffffffffffffffffff168152602001908152602001600020600101600260008a73ffffffffffffffffffffffffffffffffffffffff1673ffffffffffffffffffffffffffffffffffffffff16815260200190815260200160002060030154600260008b73ffffffffffffffffffffffffffffffffffffffff1673ffffffffffffffffffffffffffffffffffffffff16815260200190815260200160002060040160009054906101000a900460ff16848054600181600116156101000203166002900480601f016020809104026020016040519081016040528092919081815260200182805460018160011615610100020316600290048015610dea5780601f10610dbf57610100808354040283529160200191610dea565b820191906000526020600020905b815481529060010190602001808311610dcd57829003601f168201915b50505050509450828054600181600116156101000203166002900480601f016020809104026020016040519081016040528092919081815260200182805460018160011615610100020316600290048015610e865780601f10610e5b57610100808354040283529160200191610e86565b820191906000526020600020905b815481529060010190602001808311610e6957829003601f168201915b505050505092509450945094509450945091939590929450565b6000809054906101000a900473ffffffffffffffffffffffffffffffffffffffff1673ffffffffffffffffffffffffffffffffffffffff163373ffffffffffffffffffffffffffffffffffffffff16141515610f8a576040517f08c379a00000000000000000000000000000000000000000000000000000000081526004018080602001828103825260268152602001807f4f6e6c792041646d696e206861732061636365737320746f207468697320667581526020017f6e6374696f6e000000000000000000000000000000000000000000000000000081525060400191505060405180910390fd5b8060018190555050565b6000600260008373ffffffffffffffffffffffffffffffffffffffff1673ffffffffffffffffffffffffffffffffffffffff168152602001908152602001600020600301549050919050565b60015481565b60008173ffffffffffffffffffffffffffffffffffffffff163373ffffffffffffffffffffffffffffffffffffffff161415156110b1576040517f08c379a00000000000000000000000000000000000000000000000000000000081526004018080602001828103825260238152602001807f4f6e6c7920557365722063616e20706179206869732f686572206f776e20626981526020017f6c6c73000000000000000000000000000000000000000000000000000000000081525060400191505060405180910390fd5b670de0b6b3a7640000600260008473ffffffffffffffffffffffffffffffffffffffff1673ffffffffffffffffffffffffffffffffffffffff168152602001908152602001600020600301540234141515611174576040517f08c379a000000000000000000000000000000000000000000000000000000000815260040180806020018281038252601f8152602001807f506c6561736520706179206f6e6c79207468652042696c6c20416d6f756e740081525060200191505060405180910390fd5b6001600260008473ffffffffffffffffffffffffffffffffffffffff1673ffffffffffffffffffffffffffffffffffffffff16815260200190815260200160002060040160006101000a81548160ff0219169083151502179055506000600260008473ffffffffffffffffffffffffffffffffffffffff1673ffffffffffffffffffffffffffffffffffffffff168152602001908152602001600020600301819055506000600260008473ffffffffffffffffffffffffffffffffffffffff1673ffffffffffffffffffffffffffffffffffffffff168152602001908152602001600020600201819055506000809054906101000a900473ffffffffffffffffffffffffffffffffffffffff1673ffffffffffffffffffffffffffffffffffffffff166108fc349081150290604051600060405180830381858888f193505050501580156112c6573d6000803e3d6000fd5b507f98d5294a17ab48dfbe865ec5c722ad88ccb943b9219d9fcca7c5d1531c3fbffa82346001604051808473ffffffffffffffffffffffffffffffffffffffff1673ffffffffffffffffffffffffffffffffffffffff16815260200183815260200182151515158152602001935050505060405180910390a1600260008373ffffffffffffffffffffffffffffffffffffffff1673ffffffffffffffffffffffffffffffffffffffff16815260200190815260200160002060040160009054906101000a900460ff169050919050565b828054600181600116156101000203166002900490600052602060002090601f016020900481019282601f106113d757805160ff1916838001178555611405565b82800160010185558215611405579182015b828111156114045782518255916020019190600101906113e9565b5b5090506114129190611416565b5090565b61143891905b8082111561143457600081600090555060010161141c565b5090565b9056fea165627a7a7230582023705eb2a6bf73c587bbeb30d206b14892382f55a238a523d054e4c59aee18220029",
  "source": "pragma solidity ^0.5.0;\r\ncontract waterBill{\r\n    address payable admin;\r\n     uint public rateperliter;\r\n    struct Individual{\r\n        string name;\r\n        string addr;\r\n        uint water;\r\n        uint BillAmount;\r\n        bool BillPaid;\r\n    }\r\n    mapping (address=>Individual) individual;\r\n    address[] Useraccts;\r\n    constructor() public{\r\n        admin=msg.sender;\r\n    }\r\n    modifier onlyAdmin(){\r\n        require(msg.sender==admin,\"Only Admin has access to this function\");_;\r\n    }\r\n    modifier RateSet(){\r\n        require(rateperliter!=0,\"Please fill rate per liter first!\");_;\r\n    }\r\n\r\n     event NewUser(\r\n         string _name,\r\n         address _address,\r\n         uint _waterconsumed\r\n         );\r\n      event BillGenerated(\r\n          address _address,\r\n       uint billamount\r\n          );\r\n      event Billpaid(\r\n        address _address,\r\n        uint _amount,\r\n        bool _paid\r\n        );\r\n    function setUser(string memory _name,address _address,uint _waterconsumed,string memory _Physicaladdress) public onlyAdmin()\r\n    {\r\n        Individual storage User=individual[_address];\r\n        User.name=_name;\r\n        User.water=_waterconsumed;\r\n        User.addr=_Physicaladdress;\r\n        Useraccts.push(_address) -1;\r\n    emit NewUser(_name,_address,_waterconsumed);\r\n     }\r\n      function setBill(address _address) public onlyAdmin() RateSet() returns(uint){\r\n          individual[_address].BillAmount=individual[_address].water*rateperliter;\r\n          individual[_address].BillPaid=false;\r\n\r\n\r\n        emit BillGenerated(_address,individual[_address].BillAmount);\r\n       return individual[_address].BillAmount;\r\n   }\r\n    function getBill(address _address) view public returns(uint){\r\n        return individual[_address].BillAmount;\r\n    }\r\n     function setRate(uint _rate) public onlyAdmin(){\r\n      rateperliter=_rate;\r\n     }\r\n    function getDetails(address _address) public view onlyAdmin() returns(string memory,uint,string memory,uint,bool){\r\n        return (individual[_address].name,individual[_address].water,individual[_address].addr,individual[_address].BillAmount,individual[_address].BillPaid);\r\n    }\r\n    function payBill(address _address) payable public returns(bool){\r\n        require(msg.sender==_address,\"Only User can pay his/her own bills\");\r\n        require(msg.value==individual[_address].BillAmount*1000000000000000000,\"Please pay only the Bill Amount\");\r\n        individual[_address].BillPaid=true;\r\n        individual[_address].BillAmount=0;\r\n        individual[_address].water=0;\r\n        admin.transfer(msg.value);\r\n        emit Billpaid(_address,msg.value,true);\r\n        return individual[_address].BillPaid;\r\n    }\r\n}\r\n",
  "sourcePath": "C:\\Users\\Aaryamann\\Desktop\\waterBill\\contracts\\waterBill.sol",
  "compiler": {
    "name": "solc",
    "version": "0.5.0+commit.1d4f565a.Emscripten.clang"
  },
  "schemaVersion": "3.0.23",
  "updatedAt": "2020-04-11T10:21:32.252Z",
  "devdoc": {
    "methods": {}
  },
  "userdoc": {
    "methods": {}
  }
}